{"abi":[{"type":"constructor","inputs":[],"stateMutability":"nonpayable"},{"type":"function","name":"addLiquidity","inputs":[{"name":"_pairId","type":"uint256","internalType":"uint256"},{"name":"_amount0","type":"uint256","internalType":"uint256"},{"name":"_amount1","type":"uint256","internalType":"uint256"}],"outputs":[{"name":"shares","type":"uint256","internalType":"uint256"}],"stateMutability":"nonpayable"},{"type":"function","name":"createPair","inputs":[{"name":"_token0","type":"address","internalType":"address"},{"name":"_token1","type":"address","internalType":"address"}],"outputs":[{"name":"pairId","type":"uint256","internalType":"uint256"}],"stateMutability":"nonpayable"},{"type":"function","name":"getBalance","inputs":[{"name":"_pairId","type":"uint256","internalType":"uint256"},{"name":"_account","type":"address","internalType":"address"}],"outputs":[{"name":"","type":"uint256","internalType":"uint256"}],"stateMutability":"view"},{"type":"function","name":"getPairId","inputs":[{"name":"","type":"address","internalType":"address"},{"name":"","type":"address","internalType":"address"}],"outputs":[{"name":"","type":"uint256","internalType":"uint256"}],"stateMutability":"view"},{"type":"function","name":"getPairInfo","inputs":[{"name":"_pairId","type":"uint256","internalType":"uint256"}],"outputs":[{"name":"","type":"uint256","internalType":"uint256"},{"name":"","type":"address","internalType":"address"},{"name":"","type":"address","internalType":"address"}],"stateMutability":"view"},{"type":"function","name":"liquidityPairs","inputs":[{"name":"","type":"uint256","internalType":"uint256"}],"outputs":[{"name":"token0","type":"address","internalType":"contract IERC20"},{"name":"token1","type":"address","internalType":"contract IERC20"},{"name":"reserve0","type":"uint256","internalType":"uint256"},{"name":"reserve1","type":"uint256","internalType":"uint256"},{"name":"totalSupply","type":"uint256","internalType":"uint256"}],"stateMutability":"view"},{"type":"function","name":"owner","inputs":[],"outputs":[{"name":"","type":"address","internalType":"address"}],"stateMutability":"view"},{"type":"function","name":"pairCount","inputs":[],"outputs":[{"name":"","type":"uint256","internalType":"uint256"}],"stateMutability":"view"},{"type":"function","name":"pairInfo","inputs":[{"name":"","type":"uint256","internalType":"uint256"}],"outputs":[{"name":"token0","type":"address","internalType":"address"},{"name":"token1","type":"address","internalType":"address"}],"stateMutability":"view"},{"type":"function","name":"pause","inputs":[],"outputs":[],"stateMutability":"nonpayable"},{"type":"function","name":"paused","inputs":[],"outputs":[{"name":"","type":"bool","internalType":"bool"}],"stateMutability":"view"},{"type":"function","name":"removeLiquidity","inputs":[{"name":"_pairId","type":"uint256","internalType":"uint256"},{"name":"_shares","type":"uint256","internalType":"uint256"}],"outputs":[{"name":"amount0","type":"uint256","internalType":"uint256"},{"name":"amount1","type":"uint256","internalType":"uint256"}],"stateMutability":"nonpayable"},{"type":"function","name":"renounceOwnership","inputs":[],"outputs":[],"stateMutability":"nonpayable"},{"type":"function","name":"swap","inputs":[{"name":"_pairId","type":"uint256","internalType":"uint256"},{"name":"_tokenIn","type":"address","internalType":"address"},{"name":"_amountIn","type":"uint256","internalType":"uint256"}],"outputs":[{"name":"amountOut","type":"uint256","internalType":"uint256"}],"stateMutability":"nonpayable"},{"type":"function","name":"transferOwnership","inputs":[{"name":"newOwner","type":"address","internalType":"address"}],"outputs":[],"stateMutability":"nonpayable"},{"type":"function","name":"unpause","inputs":[],"outputs":[],"stateMutability":"nonpayable"},{"type":"event","name":"LiquidityAdded","inputs":[{"name":"pairId","type":"uint256","indexed":true,"internalType":"uint256"},{"name":"provider","type":"address","indexed":true,"internalType":"address"},{"name":"amount0","type":"uint256","indexed":false,"internalType":"uint256"},{"name":"amount1","type":"uint256","indexed":false,"internalType":"uint256"},{"name":"shares","type":"uint256","indexed":false,"internalType":"uint256"}],"anonymous":false},{"type":"event","name":"LiquidityRemoved","inputs":[{"name":"pairId","type":"uint256","indexed":true,"internalType":"uint256"},{"name":"provider","type":"address","indexed":true,"internalType":"address"},{"name":"amount0","type":"uint256","indexed":false,"internalType":"uint256"},{"name":"amount1","type":"uint256","indexed":false,"internalType":"uint256"},{"name":"shares","type":"uint256","indexed":false,"internalType":"uint256"}],"anonymous":false},{"type":"event","name":"OwnershipTransferred","inputs":[{"name":"previousOwner","type":"address","indexed":true,"internalType":"address"},{"name":"newOwner","type":"address","indexed":true,"internalType":"address"}],"anonymous":false},{"type":"event","name":"PairCreated","inputs":[{"name":"token0","type":"address","indexed":true,"internalType":"address"},{"name":"token1","type":"address","indexed":true,"internalType":"address"},{"name":"pairId","type":"uint256","indexed":false,"internalType":"uint256"}],"anonymous":false},{"type":"event","name":"Paused","inputs":[{"name":"account","type":"address","indexed":false,"internalType":"address"}],"anonymous":false},{"type":"event","name":"Swap","inputs":[{"name":"pairId","type":"uint256","indexed":true,"internalType":"uint256"},{"name":"user","type":"address","indexed":true,"internalType":"address"},{"name":"tokenIn","type":"address","indexed":false,"internalType":"address"},{"name":"amountIn","type":"uint256","indexed":false,"internalType":"uint256"},{"name":"amountOut","type":"uint256","indexed":false,"internalType":"uint256"}],"anonymous":false},{"type":"event","name":"Unpaused","inputs":[{"name":"account","type":"address","indexed":false,"internalType":"address"}],"anonymous":false},{"type":"error","name":"AddressEmptyCode","inputs":[{"name":"target","type":"address","internalType":"address"}]},{"type":"error","name":"AddressInsufficientBalance","inputs":[{"name":"account","type":"address","internalType":"address"}]},{"type":"error","name":"EnforcedPause","inputs":[]},{"type":"error","name":"ExpectedPause","inputs":[]},{"type":"error","name":"FailedInnerCall","inputs":[]},{"type":"error","name":"OwnableInvalidOwner","inputs":[{"name":"owner","type":"address","internalType":"address"}]},{"type":"error","name":"OwnableUnauthorizedAccount","inputs":[{"name":"account","type":"address","internalType":"address"}]},{"type":"error","name":"ReentrancyGuardReentrantCall","inputs":[]},{"type":"error","name":"SafeERC20FailedOperation","inputs":[{"name":"token","type":"address","internalType":"address"}]}],"bytecode":{"object":"0x60806040526001600655348015601457600080fd5b5060016000819055805460ff191690553380604957604051631e4fbdf760e01b81526000600482015260240160405180910390fd5b6050816055565b5060af565b600180546001600160a01b03838116610100818102610100600160a81b031985161790945560405193909204169182907f8be0079c531659141344cd1fd0a4f28419497f9722a3daafe3b4186f6b6457e090600090a35050565b6119b7806100be6000396000f3fe608060405234801561001057600080fd5b50600436106101005760003560e01c80635c975abb116100975780639d7de6b3116100665780639d7de6b3146102d4578063b0a79459146102fc578063c9c653961461030f578063f2fde38b1461032257600080fd5b80635c975abb14610285578063715018a61461029b5780638456cb59146102a35780638da5cb5b146102ab57600080fd5b80633f92a339116100d35780633f92a339146101fc578063422f104314610227578063432643491461023a5780634aac77e41461024d57600080fd5b8063173fd1db146101055780631b7a1fb2146101215780631e13ea0d1461019e5780633f4ba83a146101f2575b600080fd5b61010e60055481565b6040519081526020015b60405180910390f35b61016b61012f366004611712565b6002602081905260009182526040909120805460018201549282015460038301546004909301546001600160a01b039283169490921692909185565b604080516001600160a01b039687168152959094166020860152928401919091526060830152608082015260a001610118565b6101d26101ac366004611712565b600360205260009081526040902080546001909101546001600160a01b03918216911682565b604080516001600160a01b03938416815292909116602083015201610118565b6101fa610335565b005b61010e61020a366004611742565b600460209081526000928352604080842090915290825290205481565b61010e610235366004611775565b610347565b61010e6102483660046117a1565b6107d4565b61026061025b366004611712565b610b67565b604080519384526001600160a01b039283166020850152911690820152606001610118565b60015460ff166040519015158152602001610118565b6101fa610bfa565b6101fa610c0c565b60015461010090046001600160a01b03166040516001600160a01b039091168152602001610118565b6102e76102e23660046117d7565b610c1c565b60408051928352602083019190915201610118565b61010e61030a3660046117f9565b610f55565b61010e61031d366004611742565b610fd4565b6101fa61033036600461181c565b6111ff565b61033d61123d565b610345611270565b565b60006103516112c2565b60065460011461037c5760405162461bcd60e51b815260040161037390611837565b60405180910390fd5b60006006556103896112ec565b60008411801561039b57506005548411155b6103b75760405162461bcd60e51b81526004016103739061185c565b600084815260026020526040902083158015906103d45750600083115b6104205760405162461bcd60e51b815260206004820152601e60248201527f416d6f756e7473206d7573742062652067726561746572207468616e203000006044820152606401610373565b80546040516370a0823160e01b81523060048201526000916001600160a01b0316906370a0823190602401602060405180830381865afa158015610468573d6000803e3d6000fd5b505050506040513d601f19601f8201168201806040525081019061048c9190611889565b60018301546040516370a0823160e01b81523060048201529192506000916001600160a01b03909116906370a0823190602401602060405180830381865afa1580156104dc573d6000803e3d6000fd5b505050506040513d601f19601f820116820180604052508101906105009190611889565b835490915061051a906001600160a01b0316333089611310565b6001830154610534906001600160a01b0316333088611310565b82546040516370a0823160e01b81523060048201526000916001600160a01b0316906370a0823190602401602060405180830381865afa15801561057c573d6000803e3d6000fd5b505050506040513d601f19601f820116820180604052508101906105a09190611889565b60018501546040516370a0823160e01b81523060048201529192506000916001600160a01b03909116906370a0823190602401602060405180830381865afa1580156105f0573d6000803e3d6000fd5b505050506040513d601f19601f820116820180604052508101906106149190611889565b9050600061062285846118b8565b9050600061063085846118b8565b905086600401546000036106c45761065061064b82846118cb565b61137d565b97506103e888116106a35760405162461bcd60e51b815260206004820152601960248201527f496e697469616c206c697175696469747920746f6f206c6f77000000000000006044820152606401610373565b6106b18b60006103e86113ed565b6106bd6103e8896118b8565b975061070c565b61070987600201548860040154846106dc91906118cb565b6106e691906118e2565b600389015460048a01546106fa90856118cb565b61070491906118e2565b61144a565b97505b600088116107495760405162461bcd60e51b815260206004820152600a6024820152690536861726573203d20360b41b6044820152606401610373565b6107548b338a6113ed565b60008b8152600260208190526040909120908101859055600301839055604080518381526020810183905290810189905233908c907f089607a52cca0d390ff7d0ad4e97545804dcc41418e1daee9ec3948596fec944906060015b60405180910390a350506001600655506107cd935061146192505050565b9392505050565b60006107de6112c2565b6006546001146108005760405162461bcd60e51b815260040161037390611837565b600060065561080d6112ec565b60008411801561081f57506005548411155b61083b5760405162461bcd60e51b81526004016103739061185c565b600084815260026020526040902080546001600160a01b0385811691161480610873575060018101546001600160a01b038581169116145b6108af5760405162461bcd60e51b815260206004820152600d60248201526c24b73b30b634b2103a37b5b2b760991b6044820152606401610373565b600083116108ef5760405162461bcd60e51b815260206004820152600d60248201526c0416d6f756e7420696e203d203609c1b6044820152606401610373565b80546001600160a01b0385811691161460008080808461092f5760018601548654600388015460028901546001600160a01b039384169390921691610951565b85546001870154600288015460038901546001600160a01b0393841693909216915b935093509350935060006103e8896103e561096c91906118cb565b61097691906118e2565b90506109828184611904565b61098c82846118cb565b61099691906118e2565b97506000881180156109a85750818811155b6109f45760405162461bcd60e51b815260206004820152601a60248201527f496e73756666696369656e74206f757470757420616d6f756e740000000000006044820152606401610373565b610a096001600160a01b03861633308c611310565b610a1d6001600160a01b038516338a611468565b86546040516370a0823160e01b8152306004820152610b1c918d916001600160a01b03909116906370a0823190602401602060405180830381865afa158015610a6a573d6000803e3d6000fd5b505050506040513d601f19601f82011682018060405250810190610a8e9190611889565b60018a01546040516370a0823160e01b81523060048201526001600160a01b03909116906370a0823190602401602060405180830381865afa158015610ad8573d6000803e3d6000fd5b505050506040513d601f19601f82011682018060405250810190610afc9190611889565b600092835260026020819052604090932092830191909155600390910155565b604080516001600160a01b038c168152602081018b905290810189905233908c907fbcb6ba82bf7b5ab7e1ef293120339d48a22f48e74d6c080577d5694895280284906060016107af565b60008060008084118015610b7d57506005548411155b610bbb5760405162461bcd60e51b815260206004820152600f60248201526e125b9d985b1a59081c185a5c881251608a1b6044820152606401610373565b505050600081815260036020908152604091829020825180840190935280546001600160a01b0390811680855260019092015416929091018290529192565b610c0261123d565b610345600061149e565b610c1461123d565b6103456114f8565b600080610c276112c2565b600654600114610c495760405162461bcd60e51b815260040161037390611837565b6000600655610c566112ec565b600084118015610c6857506005548411155b610c845760405162461bcd60e51b81526004016103739061185c565b600084815260026020526040902083610cdf5760405162461bcd60e51b815260206004820152601d60248201527f536861726573206d7573742062652067726561746572207468616e20300000006044820152606401610373565b336000908152600582016020526040902054841115610d365760405162461bcd60e51b8152602060048201526013602482015272496e73756666696369656e742073686172657360681b6044820152606401610373565b80546040516370a0823160e01b81523060048201526000916001600160a01b0316906370a0823190602401602060405180830381865afa158015610d7e573d6000803e3d6000fd5b505050506040513d601f19601f82011682018060405250810190610da29190611889565b60018301546040516370a0823160e01b81523060048201529192506000916001600160a01b03909116906370a0823190602401602060405180830381865afa158015610df2573d6000803e3d6000fd5b505050506040513d601f19601f82011682018060405250810190610e169190611889565b6004840154909150610e2883886118cb565b610e3291906118e2565b6004840154909550610e4482886118cb565b610e4e91906118e2565b9350600085118015610e605750600084115b610ea55760405162461bcd60e51b8152602060048201526016602482015275496e73756666696369656e74206c697175696469747960501b6044820152606401610373565b610eb0873388611533565b610ec887610ebe87856118b8565b610afc87856118b8565b8254610ede906001600160a01b03163387611468565b6001830154610ef7906001600160a01b03163386611468565b6040805186815260208101869052908101879052339088907f9c27aedc1d1fccd4271dc15980dab26a907cdb41ed08aef747c6d0a9680f55ce9060600160405180910390a35050600160065550610f4e6001600055565b9250929050565b60008083118015610f6857506005548311155b610fa65760405162461bcd60e51b815260206004820152600f60248201526e125b9d985b1a59081c185a5c881251608a1b6044820152606401610373565b5060008281526002602090815260408083206001600160a01b03851684526005019091529020545b92915050565b6000610fde61123d565b6001600160a01b03831615801590610ffe57506001600160a01b03821615155b6110425760405162461bcd60e51b8152602060048201526015602482015274496e76616c696420746f6b656e206164647265737360581b6044820152606401610373565b816001600160a01b0316836001600160a01b0316036110a35760405162461bcd60e51b815260206004820152601860248201527f546f6b656e73206d75737420626520646966666572656e7400000000000000006044820152606401610373565b6001600160a01b038084166000908152600460209081526040808320938616835292905220541561110c5760405162461bcd60e51b81526020600482015260136024820152725061697220616c72656164792065786973747360681b6044820152606401610373565b6005805490600061111c83611917565b9091555050600554600081815260026020908152604080832080546001600160a01b03199081166001600160a01b038a811691821784556001938401805484168b8316908117909155855180870187528381528088018281528a8a5260038952878a20915182548716908516178255519501805490941694909116939093179091558085526004808552838620838752855283862087905584528285208186528452938290208590559051848152939450927fc1db9ba7c4b7ce660fe8d17bbcf07167549381df2abd694a970bd1402d86d313910160405180910390a392915050565b61120761123d565b6001600160a01b03811661123157604051631e4fbdf760e01b815260006004820152602401610373565b61123a8161149e565b50565b6001546001600160a01b036101009091041633146103455760405163118cdaa760e01b8152336004820152602401610373565b611278611585565b6001805460ff191690557f5db9ee0a495bf2e6ff9c91a7834c1ba4fdd244a5e8aa4e537bd38aeae4b073aa335b6040516001600160a01b03909116815260200160405180910390a1565b6002600054036112e557604051633ee5aeb560e01b815260040160405180910390fd5b6002600055565b60015460ff16156103455760405163d93c066560e01b815260040160405180910390fd5b6040516001600160a01b0384811660248301528381166044830152606482018390526113779186918216906323b872dd906084015b604051602081830303815290604052915060e01b6020820180516001600160e01b0383818316178352505050506115a8565b50505050565b600060038211156113de57508060006113976002836118e2565b6113a2906001611904565b90505b818110156113d8579050806002816113bd81866118e2565b6113c79190611904565b6113d191906118e2565b90506113a5565b50919050565b81156113e8575060015b919050565b60008381526002602090815260408083206001600160a01b0386168452600581019092528220805491928492611424908490611904565b925050819055508181600401600082825461143f9190611904565b909155505050505050565b60008183111561145a57816107cd565b5090919050565b6001600055565b6040516001600160a01b0383811660248301526044820183905261149991859182169063a9059cbb90606401611345565b505050565b600180546001600160a01b03838116610100818102610100600160a81b031985161790945560405193909204169182907f8be0079c531659141344cd1fd0a4f28419497f9722a3daafe3b4186f6b6457e090600090a35050565b6115006112ec565b6001805460ff1916811790557f62e78cea01bee320cd4e420270b5ea74000d11b0c9f74754ebdbfc544b05a258336112a5565b60008381526002602090815260408083206001600160a01b038616845260058101909252822080549192849261156a9084906118b8565b925050819055508181600401600082825461143f91906118b8565b60015460ff1661034557604051638dfc202b60e01b815260040160405180910390fd5b60006115bd6001600160a01b0384168361160b565b905080516000141580156115e25750808060200190518101906115e09190611930565b155b1561149957604051635274afe760e01b81526001600160a01b0384166004820152602401610373565b60606107cd8383600084600080856001600160a01b031684866040516116319190611952565b60006040518083038185875af1925050503d806000811461166e576040519150601f19603f3d011682016040523d82523d6000602084013e611673565b606091505b509150915061168386838361168d565b9695505050505050565b6060826116a25761169d826116e9565b6107cd565b81511580156116b957506001600160a01b0384163b155b156116e257604051639996b31560e01b81526001600160a01b0385166004820152602401610373565b50806107cd565b8051156116f95780518082602001fd5b604051630a12f52160e11b815260040160405180910390fd5b60006020828403121561172457600080fd5b5035919050565b80356001600160a01b03811681146113e857600080fd5b6000806040838503121561175557600080fd5b61175e8361172b565b915061176c6020840161172b565b90509250929050565b60008060006060848603121561178a57600080fd5b505081359360208301359350604090920135919050565b6000806000606084860312156117b657600080fd5b833592506117c66020850161172b565b929592945050506040919091013590565b600080604083850312156117ea57600080fd5b50508035926020909101359150565b6000806040838503121561180c57600080fd5b8235915061176c6020840161172b565b60006020828403121561182e57600080fd5b6107cd8261172b565b6020808252600b908201526a1053534e881313d0d2d15160aa1b604082015260600190565b60208082526013908201527214185a5c88191bd95cc81b9bdd08195e1a5cdd606a1b604082015260600190565b60006020828403121561189b57600080fd5b5051919050565b634e487b7160e01b600052601160045260246000fd5b81810381811115610fce57610fce6118a2565b8082028115828204841417610fce57610fce6118a2565b6000826118ff57634e487b7160e01b600052601260045260246000fd5b500490565b80820180821115610fce57610fce6118a2565b600060018201611929576119296118a2565b5060010190565b60006020828403121561194257600080fd5b815180151581146107cd57600080fd5b6000825160005b818110156119735760208186018101518583015201611959565b50600092019182525091905056fea26469706673582212201d2244e073e8b895e209dd9151dffcea993a41aa6302d4a8bd70b1c369bf6f0964736f6c634300081a0033","linkReferences":{}},"methodIdentifiers":{"addLiquidity(uint256,uint256,uint256)":"422f1043","createPair(address,address)":"c9c65396","getBalance(uint256,address)":"b0a79459","getPairId(address,address)":"3f92a339","getPairInfo(uint256)":"4aac77e4","liquidityPairs(uint256)":"1b7a1fb2","owner()":"8da5cb5b","pairCount()":"173fd1db","pairInfo(uint256)":"1e13ea0d","pause()":"8456cb59","paused()":"5c975abb","removeLiquidity(uint256,uint256)":"9d7de6b3","renounceOwnership()":"715018a6","swap(uint256,address,uint256)":"43264349","transferOwnership(address)":"f2fde38b","unpause()":"3f4ba83a"},"id":28}